:100000000C9434000C9451000C9451000C94510049
:100010000C9451000C9451000C9451000C9451001C
:100020000C9451000C9451000C9451000C9451000C
:100030000C9451000C9451000C9451000C945100FC
:100040000C9451000C9451000C9451000C945100EC
:100050000C9451000C9451000C9451000C945100DC
:100060000C9451000C94510011241FBECFEFD8E026
:10007000DEBFCDBF11E0A0E0B1E0EAE4F4E002C0F1
:1000800005900D92A034B107D9F721E0A0E4B1E0CA
:1000900001C01D92A134B207E1F70E942C010C941B
:1000A00023020C94000085B1826085B98AE08A95AC
:1000B000F1F700C085B18D7F85B98FE891E0019798
:1000C000F1F700C0000008959BB19F709BB980FFBD
:1000D00003C09BB190619BB981FF03C09BB190624B
:1000E0009BB982FF03C09BB190649BB983FF03C09F
:1000F0008BB180688BB90E9453000895CF93C82FAD
:1001000085B18E7F85B98C2F82958F700E94640097
:100110008C2F8F700E9464008FE39FE10197F1F7AD
:1001200000C00000CF910895CF93C82F85B18160A2
:1001300085B98C2F82958F700E9464008C2F8F70F0
:100140000E9464008FE39FE10197F1F700C0000077
:10015000CF910895CF93DF93EC0103C021960E94C5
:10016000940088818111FACFDF91CF91089581E0C9
:100170000E947E008FE39FE10197F1F700C000002D
:100180000895811103C080E8860F02C080EC860FBD
:100190000E947E00089584B1836084B98AB1806F23
:1001A0008AB92FEF89EF90E0215080409040E1F72D
:1001B00000C0000085B18E7F85B983E00E94640095
:1001C0008FE19EE40197F1F700C0000083E00E94F8
:1001D00064008FE193E00197F1F700C0000083E035
:1001E0000E9464008FE193E00197F1F700C00000E6
:1001F00082E00E94640088E20E947E008CE00E94FF
:100200007E0086E00E947E000E94B70008950E9452
:10021000B70060E080E00E94C10080E091E00E94B1
:10022000AA006BE080E00E94C10080914001805DE7
:100230000E94940060E081E00E94C1008091400132
:10024000811105C08BE091E00E94AA00089588E129
:1002500091E00E94AA00089587B18C7F87B988B188
:10026000836088B90E94CB000E94B6010E94E5011C
:1002700082E0809340010E94070130993AC080914A
:1002800040018823E9F00E94B70080E291E00E94DB
:10029000AA000E94D801309BFECF2FEF85EA9EE096
:1002A000215080409040E1F700C000000E94E5012D
:1002B000809140018150809340010E94070119C044
:1002C0000E94B7008BE091E00E94AA0060E081E00C
:1002D0000E94C1008DE291E00E94AA002FEF8DE301
:1002E00099E4215080409040E1F700C000000E9456
:1002F000070131991EC00E94B70086E391E00E9479
:10030000AA000E94D801319BFECF2FEF85EA9EE024
:10031000215080409040E1F700C000000E94E501BC
:1003200080914001823018F48F5F809340010E94D9
:1003300007012FEF81EE94E0215080409040E1F7DB
:1003400000C000009ACF282F30E0A0EDB7E00E9457
:10035000140224EB30E040E050E00E94F201205310
:10036000384F30938B0020938A00089584B18460C5
:1003700084B9A0E8B0E01C92E1E8F0E010828C9132
:1003800082608C938081886080838081806180839B
:100390008C9180628C9380818260808380E49CE970
:1003A000909387008093860080E00E94A3010895C7
:1003B0008AE50E94A3012FEF83ED90E32150804056
:1003C0009040E1F700C00000089580E00E94A30182
:1003D0002FEF83ED90E3215080409040E1F700C083
:1003E00000000895A1E21A2EAA1BBB1BFD010DC03F
:1003F000AA1FBB1FEE1FFF1FA217B307E407F507D5
:1004000020F0A21BB30BE40BF50B661F771F881FB0
:10041000991F1A9469F760957095809590959B0146
:10042000AC01BD01CF010895A29FB001B39FC001EF
:10043000A39F700D811D1124911DB29F700D811D10
:0A0440001124911D0895F894FFCFD8
:10044A00417661696C61626C653A005041524B4970
:10045A004E472046554C4C0057454C434F4D45009E
:10046A0047617465204F70656E696E67004E4F2054
:10047A00454E545259005448414E4B20594F55004D
:00000001FF
